{"abi":[{"type":"function","name":"getMessages","inputs":[],"outputs":[{"name":"","type":"tuple[]","internalType":"struct MessageBoard.Message[]","components":[{"name":"sender","type":"address","internalType":"address"},{"name":"content","type":"string","internalType":"string"},{"name":"timestamp","type":"uint256","internalType":"uint256"}]}],"stateMutability":"view"},{"type":"function","name":"messageCount","inputs":[],"outputs":[{"name":"","type":"uint256","internalType":"uint256"}],"stateMutability":"view"},{"type":"function","name":"messages","inputs":[{"name":"","type":"uint256","internalType":"uint256"}],"outputs":[{"name":"sender","type":"address","internalType":"address"},{"name":"content","type":"string","internalType":"string"},{"name":"timestamp","type":"uint256","internalType":"uint256"}],"stateMutability":"view"},{"type":"function","name":"postMessage","inputs":[{"name":"_content","type":"string","internalType":"string"}],"outputs":[],"stateMutability":"nonpayable"},{"type":"event","name":"NewMessage","inputs":[{"name":"sender","type":"address","indexed":true,"internalType":"address"},{"name":"content","type":"string","indexed":false,"internalType":"string"},{"name":"timestamp","type":"uint256","indexed":false,"internalType":"uint256"}],"anonymous":false}],"bytecode":{"object":"0x6080604052348015600e575f5ffd5b50610bb98061001c5f395ff3fe608060405234801561000f575f5ffd5b506004361061004a575f3560e01c80630d80fefd1461004e5780633dbcc8d1146100805780635ff6cbf31461009e5780636630f88f146100bc575b5f5ffd5b61006860048036038101906100639190610497565b6100d8565b60405161007793929190610580565b60405180910390f35b6100886101b1565b60405161009591906105bc565b60405180910390f35b6100a66101bc565b6040516100b39190610743565b60405180910390f35b6100d660048036038101906100d191906107c4565b610305565b005b5f81815481106100e6575f80fd5b905f5260205f2090600302015f91509050805f015f9054906101000a900473ffffffffffffffffffffffffffffffffffffffff169080600101805461012a9061083c565b80601f01602080910402602001604051908101604052809291908181526020018280546101569061083c565b80156101a15780601f10610178576101008083540402835291602001916101a1565b820191905f5260205f20905b81548152906001019060200180831161018457829003601f168201915b5050505050908060020154905083565b5f5f80549050905090565b60605f805480602002602001604051908101604052809291908181526020015f905b828210156102fc578382905f5260205f2090600302016040518060600160405290815f82015f9054906101000a900473ffffffffffffffffffffffffffffffffffffffff1673ffffffffffffffffffffffffffffffffffffffff1673ffffffffffffffffffffffffffffffffffffffff1681526020016001820180546102639061083c565b80601f016020809104026020016040519081016040528092919081815260200182805461028f9061083c565b80156102da5780601f106102b1576101008083540402835291602001916102da565b820191905f5260205f20905b8154815290600101906020018083116102bd57829003601f168201915b50505050508152602001600282015481525050815260200190600101906101de565b50505050905090565b5f60405180606001604052803373ffffffffffffffffffffffffffffffffffffffff16815260200184848080601f0160208091040260200160405190810160405280939291908181526020018383808284375f81840152601f19601f82011690508083019250505050505050815260200142815250908060018154018082558091505060019003905f5260205f2090600302015f909190919091505f820151815f015f6101000a81548173ffffffffffffffffffffffffffffffffffffffff021916908373ffffffffffffffffffffffffffffffffffffffff16021790555060208201518160010190816103f99190610a4a565b506040820151816002015550503373ffffffffffffffffffffffffffffffffffffffff167f4bba44446aea2a9f27db36c95346239fd392bf3a497349684a3890d0d764077d83834260405161045093929190610b53565b60405180910390a25050565b5f5ffd5b5f5ffd5b5f819050919050565b61047681610464565b8114610480575f5ffd5b50565b5f813590506104918161046d565b92915050565b5f602082840312156104ac576104ab61045c565b5b5f6104b984828501610483565b91505092915050565b5f73ffffffffffffffffffffffffffffffffffffffff82169050919050565b5f6104eb826104c2565b9050919050565b6104fb816104e1565b82525050565b5f81519050919050565b5f82825260208201905092915050565b8281835e5f83830152505050565b5f601f19601f8301169050919050565b5f61054382610501565b61054d818561050b565b935061055d81856020860161051b565b61056681610529565b840191505092915050565b61057a81610464565b82525050565b5f6060820190506105935f8301866104f2565b81810360208301526105a58185610539565b90506105b46040830184610571565b949350505050565b5f6020820190506105cf5f830184610571565b92915050565b5f81519050919050565b5f82825260208201905092915050565b5f819050602082019050919050565b610607816104e1565b82525050565b5f82825260208201905092915050565b5f61062782610501565b610631818561060d565b935061064181856020860161051b565b61064a81610529565b840191505092915050565b61065e81610464565b82525050565b5f606083015f8301516106795f8601826105fe565b5060208301518482036020860152610691828261061d565b91505060408301516106a66040860182610655565b508091505092915050565b5f6106bc8383610664565b905092915050565b5f602082019050919050565b5f6106da826105d5565b6106e481856105df565b9350836020820285016106f6856105ef565b805f5b85811015610731578484038952815161071285826106b1565b945061071d836106c4565b925060208a019950506001810190506106f9565b50829750879550505050505092915050565b5f6020820190508181035f83015261075b81846106d0565b905092915050565b5f5ffd5b5f5ffd5b5f5ffd5b5f5f83601f84011261078457610783610763565b5b8235905067ffffffffffffffff8111156107a1576107a0610767565b5b6020830191508360018202830111156107bd576107bc61076b565b5b9250929050565b5f5f602083850312156107da576107d961045c565b5b5f83013567ffffffffffffffff8111156107f7576107f6610460565b5b6108038582860161076f565b92509250509250929050565b7f4e487b71000000000000000000000000000000000000000000000000000000005f52602260045260245ffd5b5f600282049050600182168061085357607f821691505b6020821081036108665761086561080f565b5b50919050565b7f4e487b71000000000000000000000000000000000000000000000000000000005f52604160045260245ffd5b5f819050815f5260205f209050919050565b5f6020601f8301049050919050565b5f82821b905092915050565b5f600883026108f57fffffffffffffffffffffffffffffffffffffffffffffffffffffffffffffffff826108ba565b6108ff86836108ba565b95508019841693508086168417925050509392505050565b5f819050919050565b5f61093a61093561093084610464565b610917565b610464565b9050919050565b5f819050919050565b61095383610920565b61096761095f82610941565b8484546108c6565b825550505050565b5f5f905090565b61097e61096f565b61098981848461094a565b505050565b5f5b828110156109af576109a45f828401610976565b600181019050610990565b505050565b601f821115610a025782821115610a01576109ce81610899565b6109d7836108ab565b6109e0856108ab565b60208610156109ed575f90505b8083016109fc8284038261098e565b505050505b5b505050565b5f82821c905092915050565b5f610a225f1984600802610a07565b1980831691505092915050565b5f610a3a8383610a13565b9150826002028217905092915050565b610a5382610501565b67ffffffffffffffff811115610a6c57610a6b61086c565b5b610a76825461083c565b610a818282856109b4565b5f60209050601f831160018114610ab2575f8415610aa0578287015190505b610aaa8582610a2f565b865550610b11565b601f198416610ac086610899565b5f5b82811015610ae757848901518255600182019150602085019450602081019050610ac2565b86831015610b045784890151610b00601f891682610a13565b8355505b6001600288020188555050505b505050505050565b828183375f83830152505050565b5f610b32838561050b565b9350610b3f838584610b19565b610b4883610529565b840190509392505050565b5f6040820190508181035f830152610b6c818587610b27565b9050610b7b6020830184610571565b94935050505056fea26469706673582212209d2261ff8273563492c24850df6126e25ce0a56c3ffee79b4fca942d0d323f1e64736f6c63430008230033","linkReferences":{}},"methodIdentifiers":{"getMessages()":"5ff6cbf3","messageCount()":"3dbcc8d1","messages(uint256)":"0d80fefd","postMessage(string)":"6630f88f"},"id":0}